:020000040800F2
:10000000B03C0020DDA10008890600088B0600082E
:10001000AB060008AF060008B306000800000000A9
:10002000000000000000000000000000B70600080B
:10003000B906000800000000D94F0008B90B0008FD
:10004000F7A10008F7A10008F7A10008F7A1000830
:10005000F7A10008F7A10008F7A10008F7A1000820
:10006000F7A10008F7A10008F7A10008F7A1000810
:10007000F7A10008F7A10008F7A10008F7A1000800
:10008000F7A10008F7A10008F7A10008F7A10008F0
:10009000F7A10008F7A10008F7A10008F7A10008E0
:1000A000F7A10008F7A10008F7A10008F7A10008D0
:1000B000F7A10008F7A10008F7A10008F7A10008C0
:1000C000F7A10008F7A10008F7A10008F7A10008B0
:1000D000F7A10008F7A10008F7A10008F7A10008A0
:1000E000F7A10008F7A10008F7A10008F7A1000890
:1000F000F7A10008F7A10008F7A10008F7A1000880
:10010000F7A10008336B0008F7A10008F7A1000869
:10011000F7A10008F7A10008F7A10008F7A100085F
:10012000F7A10008F7A10008F7A10008F7A100084F
:1001300000F002F800F05CF80AA090E8000C82449D
:100140008344AAF10107DA4501D100F051F8AFF27A
:10015000090EBAE80F0013F0010F18BFFB1A43F0A5
:100160000103184724BA000044BA00000A444FF0C3
:10017000000C10F8013B13F0070408BF10F8014B06
:100180001D1108BF10F8015B641E05D010F8016B4B
:10019000641E01F8016BF9D113F0080F1EBF10F8AF
:1001A000014BAD1C0C1B09D16D1E58BF01F801CBD2
:1001B000FAD505E014F8016B01F8016B6D1EF9D555
:1001C0009142D6D37047000000230024002500266A
:1001D000103A28BF78C1FBD8520728BF30C148BFAA
:1001E0000B6070471FB50BF0AAF91FBD10B510BD0D
:1001F0000AF0F3F91146FFF7F5FF00F09DF90AF058
:1002000011FA03B4FFF7F2FF03BC0AF01BFA000077
:1002100030BF72B662B680F30888704710B504220A
:100220000021062001F06EFBD149002001F094FC72
:10023000D049012001F090FCCF49022001F08CFC54
:1002400010BD10B503220021062001F05BFBCB4A54
:10025000CBA1002001F0C6FFCA4ACBA1012001F0CA
:10026000C1FFCA4ACAA1022001F0BCFF10BD7CB583
:10027000002401F0F1FA04460CB1C748047006F0FE
:1002800022FE05460346C4480278CDE90023C3A3F5
:1002900001220821002002F0EFFA7CBD10B50222F5
:1002A0000021062001F02EFBC149002001F054FC82
:1002B000C049012001F050FC10BD10B506F0E5FC6E
:1002C000BD49002008F056FABC49087010BD10B5B1
:1002D00006F0DBFC0B22BAA1BD4808F063FAB7496F
:1002E0000870BC4B1922BC49B94808F019FCB34945
:1002F0000870B74808F079FDB049087010BD10B516
:1003000006F0C3FC0122AEA1B14808F04BFAAB499C
:100310000870B24B5022B249AD4808F00DFBA74916
:100320000870AB4808F061FDA449087010BD1FB506
:1003300003220521062001F0E5FAAFF28102A9A10E
:10034000002001F04FFFAFF27902A9A1012001F0D6
:1003500049FFAFF25502A9A1022001F043FFAA48CC
:10036000C16C806CCDE9020194480378A7480278FB
:10037000CDE90023A6A3FE222021002002F07CFA72
:10038000974B0093A6A301221821002002F074FAD3
:10039000934B15330093A2A301221021002002F0F9
:1003A0006BFA8F4B2A3300939DA301220821002072
:1003B00002F062FA8A4B3F33009399A30122002195
:1003C000084602F059FA1FBD10B54FF40072002123
:1003D000012009F0C7F910BD10B506F056FC91498F
:1003E000012008F0C7F97549087010BD10B506F076
:1003F0004CFC0B228CA1904808F0D4F96F4908708E
:10040000744B17228D498C4808F08AFB6B490870A1
:10041000894808F0EAFC6949087010BD10B506F07B
:1004200034FC012280A1844808F0BCF963490870BB
:100430006A4B50226A49804808F07EFA5F4908708A
:100440007D4808F0D2FC5D49087010BD1CB504223F
:100450000521062001F056FAAFF2930278A10020A0
:1004600001F0C0FEAFF28F0278A1012001F0BAFEC8
:10047000AFF2870278A1022001F0B4FEAFF263026E
:1004800078A1032001F0AEFE4C4803785F48027863
:10049000CDE9002376A3FE222021002002F0ECF912
:1004A0004F4B00935EA301221821002002F0E4F9D3
:1004B0004B4B153300935AA301221021002002F068
:1004C000DBF9474B2A33009355A301220821002072
:1004D00002F0D2F9424B3F33009351A30122002195
:1004E000084602F0C9F91CBD002400BF0CE006F06C
:1004F0009CFC0446204601F0A9F901F0B0F900F097
:10050000F7FB1E2000F0A9FBF1E770B504460025BB
:1005100000BF02F0B8FE04F03FFD05460A23574A2B
:100520000021AFF23B0004F07DF82B2004F0FFFA2D
:10053000284604F035FD70BD10B500F045FB06F00F
:1005400083FB06F0B8FD06F05FFC4D4800F0BCFBF5
:1005500006F09BFB02F05BFD2B234A4A0021AFF221
:10056000550004F05FF802F076FE002010BD000098
:100570000C00002018000020240000207B6C0008E4
:100580004F6E0000836C00084F6666008B6C00089D
:10059000426C696E6B000000780000206B65793D4D
:1005A00025582C7377697463683D25580000000056
:1005B000600000206C000020380B00207900002033
:1005C000303A2F66746573742E74787400000000DE
:1005D000A00F002080000020300000207C000020C0
:1005E000F8130020312E665F6D6F756E7400000089
:1005F000322E665F7772697465000000332E665F85
:100600006F70656E000000009825002086000020B5
:10061000533D25642C723D25642C433D2564000028
:10062000257300006C0D0020313A2F6674657374D9
:100630002E74787400000000CC11002049000020C6
:10064000312E665F6D6B667300000000322E665FB0
:100650006D6F756E74000000332E665F777269747B
:1006600065000000342E665F6F70656E000000004C
:10067000533D25642C723D2564000000340B00209E
:10068000000000203403002070470DE00BA301227E
:100690000821002000F04CFE0DA301220021084695
:1006A00000F046FE00F024FBF0E700BFFEE700BFCD
:1006B000FEE700BFFEE77047704700005B457272BF
:1006C0006F723A486172644661756C74215D000016
:1006D000706C6561736520707265737320726573E9
:1006E0006574210000210020674A126842F48032BC
:1006F000654B1A6000BF644A126802F40030491C5E
:1007000010B9B1F5A06FF6D15F4A126812F4003F3C
:1007100001D0012000E00020012842D15B4A12688C
:1007200042F01002594B1A601A46126822F0030276
:100730001A601A46126842F002021A60524A52685F
:10074000514B5A601A4652685A601A46526842F42F
:1007500080625A601A46526822F47C125A601A4625
:10076000526842F4E8125A601A46126842F08072E7
:100770001A6000BF444A126812F0007FFAD0424A61
:10078000526822F00302404B5A601A46526842F007
:1007900002025A6000BF3C4A526802F00C02082A6A
:1007A000F9D1704710B5FFF79DFF10BD10B5364861
:1007B000006840F001003449086008464068344948
:1007C00008403149486008460068324908402E49CF
:1007D00008600846006820F48020086008464068E9
:1007E00020F4FE0048604FF41F008860FFF7DAFF36
:1007F0004FF000602849086010BD10B500210020AE
:100800000022214B5B6803F00C0121B1042906D0C2
:10081000082928D107E0214B214C236027E01F4BFA
:100820001F4C236023E0184B5B6803F47010164BD9
:100830005B6803F48032022303EB904022B9194B2A
:100840004343174C23600DE00F4B5B6813F4003FEC
:1008500004D0144B4343124C236003E00F4B43433B
:100860000F4C236003E00D4B0D4C236000BF00BF15
:10087000054B5B68C3F303130B4CE15C084B1B682F
:10088000CB40074C236010BD001002400020024006
:100890000000FFF8FFFFF6FE08ED00E000127A000E
:1008A0008800002000093D008C000020B04A0A406A
:1008B0000243B04B1A6070470146072323EA010246
:1008C0001202AD4B18684FF6FF0300EA0300AB4B72
:1008D00040EA030040EA02004FF0E023C3F80C0DA9
:1008E00070472DE9F0478046894614461D4620464C
:1008F000E11704EB91714FEAA10AE11704EB917142
:100900008910A4EB8101CFB2042000EBC700C7B26D
:100910002846FFF7D1FFC5F1040008FA00F60F20C2
:10092000284100EA0900064306F00F06202C0CDAE5
:10093000934801684FF0010000FA04F041EA000119
:100940004FF0E020C0F800110DE08E480068A4F1DF
:1009500020014FF0010202FA01F240EA02004FF0DA
:10096000E021C1F80401884810F80A0006FA07F1EE
:100970000843C1B2844800F80A10BDE8F08770B59A
:1009800004460B46CE1701EB9676B010CE1701EB5E
:100990009676B610A1EB8606B606350E7B4B9B69A4
:1009A00043F00103794EB3614FEAB63353F8203078
:1009B0000F26AE40B343764E46F82030334653F808
:1009C000203004FA05F63343714E46F82030714B5F
:1009D0001E684FF0010303FA01F346EA03066E4B6B
:1009E000C3F8006412F0010F0AD06C4B1B684FF083
:1009F000010606FA01F643EA0603674EC6F80C3410
:100A000012F0020F0AD0664B1B684FF0010606FA7F
:100A100001F643EA0603604EC6F8083470BD00B51F
:100A200000205A490861C86014204861002088618C
:100A3000C8610846006840F0010008600846406848
:100A400058490840514948600846006856490840DE
:100A50004E4908600846006820F480200860084677
:100A6000406820F4FE0048600020886000214FF0BC
:100A70000060FFF71BFF00BD10B54C48006840F058
:100A800004004FF0E021C1F8100D4048C06940F06B
:100A900080503E49C8614648406840F480704449EF
:100AA00048600846006840F0040008600846006896
:100AB00040F002000860FFF7ABFB10BD2F48001D9F
:100AC0002D490860704701464906304A926942F054
:100AD00001022E4B9A61304A526822F0E0622E4B9E
:100AE0005A601A4652680A435A60704730B5044645
:100AF0000025FFF794FF2548006840F48030234923
:100B0000086000BF21480068400CFBD04FF48060B3
:100B10001E494860A01EC4B20846406840EA8440AE
:100B200048600846406840F48030486021480068CA
:100B300040F032001F4908601448006840F080709F
:100B40001249086000BF11480068400EFBD00F48F2
:100B5000406840F002000D49486005E00B484068DD
:100B6000C0F3870505F00305022DF7D130BD000065
:100B700080FFFF1F08ED00E00CED00E00000FA052B
:100B800000E100E004E100E000E400E000100240C9
:100B90000800014000040140000001400C04014035
:100BA000080401400000FFF8FFFFF6FE10ED00E032
:100BB000007000400020024010B502F03EFA02F042
:100BC00081FB02F055FA10BD10B56FF0040009F07A
:100BD000E2FA314800683149B0FBF1F03049087061
:100BE0002D4800682D49B0FBF1F441F288304443B0
:100BF00005202C4908804FF0E020006940F00200F9
:100C00004FF0E021086108464461006940F00100AE
:100C1000086110BD70B5034600224FF0E0267569EB
:100C20001F4E367803FB06F400BF4FF0E026B16993
:100C300010E04FF0E026B06988420BD0884202D223
:100C40000E1A324402E02E1A0E4432440146A242E9
:100C500000D300E0EDE700BF70BD70B50446124858
:100C60000078012811D10F480088844206DB0D4826
:100C7000008894FBF0F5284604F044F80948008801
:100C800094FBF0F100FB114084B24FF47A7104FB45
:100C900001F0FFF7BFFF70BD8800002000127A004E
:100CA0009C0000209E0000205601002010B504F09A
:100CB00094FA10BD10B50446204604F0FDFA10BDAC
:100CC00010B504F06EFA10BD10B50446FFF7EEFF44
:100CD0004FF480611F4809F060FB204600F0AFFD33
:100CE00010BD10B54FF480611A4809F056FB10BDD5
:100CF00010B51848FFF7DEFFFFF7F3FF10BDF0B5A2
:100D00000B4614460025802801D2402B00D3F0BDAD
:100D10000726A6EBD306F1B203F00702C2F10707DC
:100D20000126BE40F5B24CB10A4E06EBC006765C19
:100D30002E43084F07EBC0077E5408E0054E06EB34
:100D4000C006765CAE43034F07EBC0077E5400BF7E
:100D5000DDE700005C14002029B1012902D0FE2942
:100D600007D101E000BF00BFFF4B0CCBC0E900235F
:100D70007047FD4B0CCBC0E9002300BFF8E72DE91D
:100D8000FE4F0446884615461E460120029004F098
:100D9000FF0B31466846FFF7DFFF9DF8000030404B
:100DA0000290A5F12000C5B29DF80200401E47B296
:100DB00033E09DF80210019805FB010010F8079040
:100DC0004FF0000A23E019F0800F05D0414620467D
:100DD000029AFFF794FF09E0029808B9012000E0A9
:100DE0000020C2B241462046FFF789FF4FEA496022
:100DF0004FEA1069641CA4EB0B00082803D15C4681
:100E000008F1010806E00AF1010000F0FF0ABAF15A
:100E1000080FD8DB00BF781E47B2002FC9DABDE843
:100E2000FE8F2DE9FC410646884614461F460025E4
:100E300039466846FFF790FF0AE0625D3B4641464F
:100E40003046FFF79CFF9DF801000644681CC5B2C0
:100E5000605D0028F1D1BDE8FC812DE9FF4F9FB016
:100E60001D461F9800F0FF0800201C9003201B90D7
:100E700001200C90219908A8FFF76EFF0020129026
:100E800010904DE215F8011B4CB204B94CE2252C30
:100E90000BD0E2B24046DDE92013FFF770FF9DF86A
:100EA0002100404400F0FF0835E2002081468346DF
:100EB00000BF199015F8011B4CB2302C05D14FF032
:100EC000010915F8011B4CB20EE02D2C05D14FF095
:100ED000020915F8011B4CB206E02E2C04D10120AA
:100EE0001C9015F8011B4CB218E01C9801280BD17E
:100EF000199800EB800004EB40003038C0B2199024
:100F000015F8011B4CB209E00BEB8B0004EB400021
:100F1000303800F0FF0B15F8011B4CB2302C01DB10
:100F2000392CE2DD1C98012807D11998072801DD2A
:100F3000072000E01998C0B21B906C2C01D04C2CFB
:100F400004D149F0040915F8011B4CB204B9EBE1D6
:100F50002746612C04DB7A2C02DCA7F1200047B283
:100F60004F2F78D008DC422F76D0432F64D0442F07
:100F700073D0462F72D173E0532F04D0552F6ED00B
:100F8000582F6BD124E12C98006813902C98001DE9
:100F90002C904FF0000A03E00AF1010000F0FF0A74
:100FA000139810F80A000028F6D1CDF83CA0119053
:100FB00019F0020F15D10EE020224046DDE9201382
:100FC000FFF7DDFE1198401C00B211909DF8210042
:100FD000404400F0FF085046411C01F0FF0A58450C
:100FE000EADB4046DDE92013139AFFF71AFF9DF86C
:100FF00021100F9801FB008000F0FF080F99119855
:10100000084400B211900EE020224046DDE9201392
:10101000FFF7B5FE1198401C00B211909DF8210019
:10102000404400F0FF085046411C01F0FF0A5845BB
:10103000EADB119810906EE12C9802C8CAB22C908D
:101040004046DDE92013FFF79AFE9DF82100404459
:1010500000F0FF085FE1B4E0B0E0B5E0BBE0B4E071
:101060002C98C01D20F0070001462C9000684968AC
:101070002C9A08322C92CDE90A0100221346DDE9B0
:101080000A0109F0ABFD0BD21B9840F008001B9041
:101090000022364BDDE90A0109F0DCFDCDE90A0149
:1010A000DDE90A0109F012FD00B20E9001200C905A
:1010B0001B9800F007001A9009E00C9800EB8000E4
:1010C000400000B20C901A98401EC0B21A901A98B4
:1010D000401EF2D50E9809F056FDCDE90001DDE97C
:1010E0000A2309F0EBFECDE904010C9809F04BFD51
:1010F000CDE90201DDE9042309F0ACFDCDE90601EB
:1011000009F0E4FC00B20D9000261B9800F00700E7
:101110001A901CE00D98A0B10A210D9890FBF1F2F5
:1011200001FB120047B20D9890FBF1F000B20D9058
:1011300007F1300042B23046711CCEB214A90A54F5
:1011400005E030223046711CCEB214A90A541A9818
:10115000411EC9B21A910028DCD12E223046711CE2
:10116000CEB214A90A5403E0A00000200000F0BF92
:1011700000BF0A210E9890FBF1F201FB120047B26A
:101180000E9890FBF1F000B20E9007F1300042B2E1
:101190003046711CCEB214A90A540E9808B1102E14
:1011A000E7D31B9810F0080F05D02D223046711C94
:1011B000CEB214A90A5400201C906AE002201D90AF
:1011C00017E008201D9014E000BF0A201D9010E0D9
:1011D00010201D900DE0E2B24046DDE92013FFF73C
:1011E000CEFD9DF82100404400F0FF080120109042
:1011F00091E000BF19F0040F05D02C9800682C99DD
:10120000091D2C910CE0442F05D12C9800682C99D5
:10121000091D2C9104E02C9800682C99091D2C9133
:101220001890442F08D1189810F0004F04D0189847
:101230004042189049F00809002600BF1D991898EF
:10124000B0FBF1F201FB120047B21D991898B0FBF8
:10125000F1F01890092F06DD782C01D1272000E04D
:101260000720384447B207F1300042B23046711CC3
:10127000CEB214A90A54189808B1102EDED319F072
:10128000080F05D02D223046711CCEB214A90A5485
:1012900000BFB24619F0010F01D0302000E020203D
:1012A00047B20AE0FAB24046DDE92013FFF767FDD6
:1012B0009DF82100404400F0FF0819F0020F05D10D
:1012C0005046411C01F0FF0A5845EBDB00BF701E81
:1012D000C0B2064614A90A5C4046DDE92013FFF7B8
:1012E0004EFD9DF82100404400F0FF08002EEED195
:1012F0000AE0FAB24046DDE92013FFF740FD9DF811
:101300002100404400F0FF085046411C01F0FF0A54
:101310005845EEDB00BF10991298084400B21290B5
:101320001098401C7FF4AEAD00BF23B0BDE8F08F35
:101330000FB47CB504460D4616460AA801900198E4
:101340000090324629462046099BFFF786FD7CBC6B
:101350005DF814FB2DE9F04106460F4615461C4684
:1013600015F0030006D001282AD0022808D003284F
:1013700025D114E0002239463046FFF7C0FC25E0B5
:1013800014F0010F05D0012239463046FFF7B7FCB3
:1013900004E0002239463046FFF7B1FC16E004F0C5
:1013A0000300022805D3012239463046FFF7A7FC87
:1013B00004E0002239463046FFF7A1FC06E000BFFA
:1013C000012239463046FFF79AFC00BF00BFBDE856
:1013D000F0812DE9FF4F81B081460398A0EB090011
:1013E00004B202990498401A05B2002C01DD0120D4
:1013F00000E000200121C1EB40000FFA80FA002D2F
:1014000001DD012000E000200121C1EB40000FFAC6
:1014100080FB0FFA89F702980FFA80F800200090FD
:101420000026002C01DA604200E0204604B2002DC4
:1014300001DA684200E0284605B2AC421EDD0FFA30
:1014400089F716E00098401C009041463846009B02
:101450000E9AFFF77FFF701906B2B4EB460F05DC5A
:1014600008EB0B000FFA80F8301B06B207EB0A00FE
:1014700007B203985044B842E4D11EE002980FFA34
:1014800080F816E00098401C009041463846009BCA
:101490000E9AFFF75FFF301906B2B5EB460F04DC7A
:1014A00007EB0A0007B2701B06B208EB0B000FFA3D
:1014B00080F8049858444045E4D105B0BDE8F08F69
:1014C0002DE9F84F04460D4690464FF0000B002DD5
:1014D00001DCBDE8F88F012D08D154F8049BD4F845
:1014E00000A0012251464846FFF709FC54F8049B2E
:1014F00054F804AB4FF0010B0FE040CC80CC3B46DE
:10150000324651464846CDF80080FFF762FFB146AB
:10151000BA460BF1010000F0FF0BAB45EDDB00BF5D
:10152000D7E72DE9F84F06460C4617461D46DDF86D
:1015300028804FF00009CA4618F0040F02D1B8F114
:10154000000F35D1BE4202D9B1463E464F46AC42AD
:1015500002D9A1462C464D46B8F1000F02D14FF0FA
:10156000000A01E04FF0010AAC4209D123463A4695
:1015700021463046CDF800A0FFF72BFFBDE8F88FDD
:10158000BE4208D12B46324621463046CDF800A057
:10159000FFF71FFFF2E708E023463A4621463046B0
:1015A000CDF800A0FFF715FF641CAC42F4D91FE092
:1015B0002B46324621463046CDF80080FFF709FF22
:1015C0002B463A4629463046CDF80080FFF701FF0A
:1015D0002B463A4621463846CDF80080FFF7F9FE03
:1015E00023463A4621463046CDF80080FFF7F1FE0B
:1015F00000BFC3E72DE9F84F06460F4690469946CF
:1016000000241FFA88F50320A0EB48000FFA80FAA7
:1016100065E0B9F1040F20D1012300937B19321B3F
:1016200079193019FFF7D5FE012300937B1B321B7C
:10163000791B3019FFF7CDFE012300933B19721B74
:1016400039197019FFF7C5FE012300933B1B721B6C
:10165000391B7019FFF7BDFE27E0791930194A468A
:10166000FFF74DFB7919301B4A46FFF748FB791B02
:1016700030194A46FFF743FB791B301B4A46FFF7F8
:101680003EFB391970194A46FFF739FB3919701BAF
:101690004A46FFF734FB391B70194A46FFF72FFB08
:1016A000391B701B4A46FFF72AFB601C84B2BAF153
:1016B000000F0EDB681E85B2A0000FFA80FBABEBBB
:1016C00085000FFA80FB0BF10A0050440FFA80FAF4
:1016D00005E0062000EB840050440FFA80FAA54292
:1016E00097DCBDE8F88FF0B50446059DC80800FBFF
:1016F0000320005D01F00706C6F107070126BE4082
:10170000304201D0012000E00020C0B2F0BD2DE940
:10171000F84F07460E4693469946DDE90A8A0024AB
:101720000025464400BF21E000241BE04B465A46FA
:1017300021462846CDF80080FFF7D5FF28B1311BA0
:1017400078195246FFF7DBFA0AE0BAF1000F01D12F
:10175000012300E00023DAB2311B7819FFF7CFFA3A
:10176000601C04B24445E1D3681C05B24D45DBD38F
:10177000BDE8F88F4C4800210160017100204A4902
:1017800048718871704748498979474A50541146D1
:101790008979491CC9B29171052901DB0021917138
:1017A000704741484079404A9279904201D10020E7
:1017B00070473D4840793C4A115C10464079401CD6
:1017C000C0B25071052801DB002050710846EFE7D8
:1017D000F8B5044600BF00BF206808F07AFD001D80
:1017E00000EB40004006060EC6F18000C0F347053E
:1017F000236800932DA301223821A81CFFF798FD30
:10180000012300933923AA1C19460620FFF7E1FDA6
:101810000123A919881E0093392379221946FFF75D
:10182000D8FD606850B12348007838B9852300930B
:1018300021A3012238210020FFF77AFDF8BD00B571
:1018400002461E480260FFF795FF00BD00B5034643
:101850001846FFF798FF00BD19480078704710B58B
:10186000FFF79FFF1649087014480068FFF7B0FFA4
:10187000124909688868804711480078602812D1A9
:101880000C48007878B90D480068406858B10B489A
:10189000006840680949086000200A490968087022
:1018A00008490968487010BDB00000205B2025730E
:1018B000205D0000A900002025630000AC0000208E
:1018C000A8000020240100200146FA480068407862
:1018D000081A0AD4F74800684078081AF54A1268CE
:1018E000D278904201DC012070470020FCE70146DD
:1018F000F04800688078401AEE4A12685278104426
:10190000C00070472DE9F04F8BB006468846174659
:101910004FF0000900200A9082460990834600BFDC
:101920000890464503DA0A964646DDF82880102FCF
:1019300000DD1027DF4800688670A6EB0800DD494F
:101940000968C870DB480068C078B84203DB781EBD
:10195000D8490968C870FFF77FFF8246BAF1500F77
:101960001FD1D4480068007800280ADDD2480078EA
:1019700038B9D04800680078401ECE490968087020
:1019800039E0CC4800684078002834DDCA48007847
:1019900088BBC84800684078401EC649096848703E
:1019A00029E0BAF1200F26D1C24800680078C14969
:1019B0000968C97888420ADABF48007838B9BD4852
:1019C00000680078401CBB490968087013E0B948FA
:1019D00000684178B7480068C078381A401E8142D4
:1019E00009DAB548007830B9B24800684078401C40
:1019F000B04909684870AF4800684078AD49096847
:101A00000978084400F0FF0BF000AA490968486013
:101A10004FEAC800A74909688860A648006841687D
:101A2000A44800680078A1EBC000C0B209908623EA
:101A30000093A2A3012200200999FFF779FC062E4A
:101A40000FD002239B4800930068406800F1080310
:101A500098480068406800F108017F220020FFF7E5
:101A6000B8FC6EB102239348009300688068431E5F
:101A7000904800688068411E7F220020FFF7A9FC83
:101A8000384609F097F8CDE906018A49096849689E
:101A9000884A12689268891A01F1080009F08AF8E8
:101AA000CDE90401DDE9062308F0B8FE04460D4641
:101AB0000BF1010009F067F822462B46CDE9000141
:101AC00009F0C8F8CDE904017A4909684968C81DD8
:101AD00009F070F8CDE90201DDE9042309F0FAF913
:101AE000CDE9060109F022F80890089809F062F89B
:101AF00022462B46CDE9020108F0DEFDCDE90401C6
:101B000009F014F804230093079003467F227C20F9
:101B10000899FFF706FD01236648009300684068B6
:101B2000C31D644800687F2281687C20FFF7F9FCB0
:101B30004FF000090BE0CB4501D1012000E000206F
:101B40005F4901F8090009F1010000F0FF09B945FA
:101B5000F1DD0BB0BDE8F08FF8B504460D46002668
:101B600000275548007810F0020F00D0F8BD102C67
:101B700000DBFBE72046FFF7A7FE012836D1204611
:101B8000FFF7B5FE06464E48005D01280DD1FFF770
:101B900063FE0746402F08D14A48056000204549AA
:101BA000096808704349096848702B68009346A388
:101BB000012231460620FFF7BBFB872300933FA39A
:101BC000012231467320FFF7B3FB3A4800684078A2
:101BD0003849096809780844A04207D18423009352
:101BE00036A3012238217A20FFF7A2FB00BFBDE710
:101BF0002DE9F04106460027002E01DB304600E0CB
:101C000070424FFA80F80024304D002714E0002E77
:101C100008DB00222E4B2046294609F01BF804461B
:101C20000D4607E02B4A2C4B2046294609F012F8B6
:101C300004460D46781C07B24745E8DB2046294696
:101C4000BDE8F0812DE9FF4F8FB092461CAE96E8BB
:101C5000C00300200B900A9000210C460D4609900D
:101C6000089083460790069005901348007810F07E
:101C7000020F02D013B0BDE8F08F42464B4630460B
:101C8000394608F0ABFF05D2CDE90C6746464F4612
:101C9000DDE90C890F98102800DBEBE7BAF1060F9D
:101CA00028D2DFE80AF0031B281E2124209809907F
:101CB00024E0000024010020A9000020256300008A
:101CC00091180020AC000020257300000000F03FB8
:101CD000000024409A9999999999B93F20980890C1
:101CE0000CE02098079009E02098069006E02098E4
:101CF000059003E000BFDDF880B000BF00BF0F9883
:101D0000FFF7E2FD01287ED10F98FFF7F0FD0B9061
:101D1000F9490F98085C012876D1FFF79DFD0A90DC
:101D20000A98402805D1F548007880F00100F34971
:101D30000870F248007810F0010F65D0F04890F973
:101D40000000FFF755FF04460D460A9850287CD145
:101D5000BAF1060F7AD2DFE80AF00320953C5A7AEE
:101D6000099991F9000008F00EFF22462B46CDE9B3
:101D7000000108F0A1FC32463B46CDE9020108F023
:101D80002DFF09D82046294608F0A0FE09990978B8
:101D9000084441B20998017090E00899087808F069
:101DA00009FF22462B46CDE9000108F085FC3246AA
:101DB0003B46CDE9020108F011FF09D8204629462B
:101DC00008F0B4FE089909780844C1B20898017077
:101DD00074E00799086808F0D6FE22462B46CDE944
:101DE000000108F069FC32463B46CDE9020108F0EB
:101DF000F5FE0BD82046294608F068FE07990968C9
:101E00000144079801E0CCE11EE1016056E006992B
:101E1000086809F049F922462B46CDE9000108F08F
:101E20004BFC32463B46CDE9020108F0D7FE0BD809
:101E30002046294608F00EFC049006980168049894
:101E400009F05EF90699086038E038E019E0059974
:101E500003C922462B46CDE9000108F02DFC32468D
:101E60003B46CDE9020108F0B9FE09D8059903C93E
:101E700022462B46CDE9020108F01EFC059A03C25A
:101E80001CE000BFBBF9000008F07DFE22462B4697
:101E9000CDE9000108F010FC32463B46CDE90201D5
:101EA00008F09CFE09D82046294608F00FFEBBF832
:101EB0000010084400B2ABF8000000BFE6E00A984A
:101EC000202879D1BAF1060F77D2DFE80AF0032093
:101ED000923C5777099991F9000008F054FE224688
:101EE0002B46CDE9000108F0F5FF42464B46CDE90F
:101EF000020108F0ADFF09D82046294608F0E6FDAA
:101F000009990978081A41B2099801708DE0089979
:101F1000087808F04FFE22462B46CDE9000108F074
:101F2000D9FF42464B46CDE9020108F091FF09D89E
:101F30002046294608F0FAFD08990978081AC1B226
:101F40000898017071E00799086808F01CFE2246A5
:101F50002B46CDE9000108F0BDFF42464B46CDE9D6
:101F6000020108F075FF08D82046294608F0AEFDAA
:101F700007990968091A0798016056E006990868E8
:101F800009F092F822462B46CDE9000108F0A2FFA5
:101F900042464B46CDE9020108F05AFF0BD82046D5
:101FA000294608F057FB049006980168049809F048
:101FB000D2FA0699086038E038E019E0059803C8BD
:101FC00022462B46CDE9000108F084FF42464B46ED
:101FD000CDE9020108F03CFF09D8059803C8224664
:101FE0002B46CDE9020108F075FF059A03C21CE0FB
:101FF00000BFBBF9000008F0C6FD22462B46CDE924
:10200000000108F067FF42464B46CDE9020108F0A7
:102010001FFF09D82046294608F058FDBBF80010DC
:10202000081A00B2ABF8000000BF2FE00A98302871
:102030000BD1334890F90000042827DA30480078A3
:10204000401C40B22E49087020E00A9810281DD18B
:10205000BAF1040F02D0BAF1050F0CD1284890F95B
:10206000000010F1030F11DD25480078401E40B23A
:10207000234908700AE0224890F90000002805DD95
:102080001F480078401E40B21D490870BAF1060F83
:1020900048D2DFE80AF0030E4818223B099890F96D
:1020A0000030009317A3012244200B99FFF740F959
:1020B00044E008980378009312A3012244200B996E
:1020C000FFF736F93AE00798036800930DA3012261
:1020D00044200B99FFF72CF930E00699086808F0C6
:1020E000E3FFCDE9020108A30122CDE9000144206C
:1020F0000B99FFF71DF921E091180020A90000209D
:10210000280100202564000025660000059903C908
:10211000AFF20C030122CDE9000144200B99FFF737
:1021200007F90BE000BFBBF900300093AFF22C03BE
:10213000012244200B99FFF7FBF800BF00BFFB48CA
:10214000007810F0010F11D0F9490F98085C0128B0
:102150000CD18323CDE90245049382230093F5A398
:10216000FE2200200B99FFF7E3F808E0109B009394
:10217000AFF2AC43012206200B99FFF7D9F8EF48E4
:1021800000684078ED490968097801440F98814258
:1021900007D184230093E8A3012238217A20FFF796
:1021A000C7F800BF66E50FB47CB504460025102CC7
:1021B00002DB7CBC5DF814FB2046FFF785FB0128A1
:1021C0000ED12046FFF793FB054608A80190019821
:1021D0000090012229460620079BFEF73EFE00BF25
:1021E00000BFE6E72DE9F84304460D4616460027F2
:1021F000B846B946CD48007810F0020F01D0BDE8CE
:10220000F883102C00DBFAE72046FFF75DFB01287E
:1022100034D12046FFF76BFB0746C548005D012817
:1022200007D1FFF719FB8046B8F1400F01D14FF0FD
:102230000109AFF26C530122394606200095FFF7E1
:1022400077F8BFA3012239464420FFF771F8B9F1AE
:10225000010F02D14FF00009B047B848006840783C
:10226000B649096809780844A04207D1842300933D
:10227000B1A3012238217A20FFF75AF800BFBEE748
:102280002DE9F84F04460F4615461E464FF000094B
:10229000CA46012000FA06F8A448007810F0020FA0
:1022A00001D0BDE8F88F012E01DB202E00DD0126D4
:1022B000102C00DBF5E72046FFF706FB01283BD199
:1022C0002046FFF714FB81469948005D012809D19B
:1022D000FFF7C2FA8246BAF1400F03D1286880EABC
:1022E00008002860AFF220630122494606200097CB
:1022F000FFF71EF8286810EA080F06D091A3012204
:1023000049464420FFF714F805E090A3012249460E
:102310004420FFF70DF8894800684078874909682C
:1023200009780844A04207D18423009382A30122A4
:1023300038217A20FEF7FCFF00BFB2E770B50446F3
:102340000E461546284607F0C4FFA04205D922468E
:102350002946304608F06AF803E02946304607F07F
:1023600094FF70BD2DE9FF4F85B0814692469B4694
:10237000002004900027002400250026BAF1290F30
:1023800002DA0AF1010000E029201FFA80F8B9F111
:10239000100F02DB09B0BDE8F08F4846FFF794FA52
:1023A000012878D14846FFF7A2FA0490604810F857
:1023B000090001286ED1FFF74FFA0746402F2CD1B4
:1023C0006448008818BB6448008800BB5748007800
:1023D00010F0020F0BD05548007820F0020053494E
:1023E00008705E4A59465046FFF7A8FF15E04F486F
:1023F000007840F002004D4908702921574807F045
:10240000EEFF5A4655494046FFF798FF05E047481A
:10241000007880F00400454908704448007810F0C6
:10242000020F37D04B4800884B490988132202FB22
:10243000010086B2502F3ED13C48007810F0040FC6
:102440002AD047480068017845480068001D50F8C8
:102450002100017842480068027841480068001D68
:1024600050F82200007A401E814215DA3C4800688C
:1024700001783B480068001D50F821000078401C9E
:10248000C1B237480068027835480068001D50F82E
:1024900022000170B2E0EDE12448007810F0040F52
:1024A00008D12D480088002804DD2B480088401EF4
:1024B00029490880A2E0202F54D11C48007810F050
:1024C000040F1FD026480068017825480068001DC9
:1024D00050F821000078002814DD214800680178B8
:1024E0001F480068001D50F821000078401EC1B24E
:1024F0001B48006802781A480068001D50F8220046
:1025000001707BE00948007810F0040F76D1124882
:102510000088042872DA06F1130040456EDA0E488E
:102520000088401C0C49088068E00000A9000020D9
:1025300091180020256325662563000024010020F2
:102540002D3E00005B4F4E205D0000005B4F464675
:102550005D0000002A0100202C01002068180020E6
:1025600020010020302F20D1FF48007810F0040F08
:102570000CD0FE4800680078002807DDFB480068A2
:102580000078401EF9490968087037E0F64800787D
:1025900010F0040F32D1F648008800282EDDF448F0
:1025A0000088401EF249088028E0102F26D1EE480E
:1025B000007810F0040F10D0EC4800680178EB4868
:1025C00000684078401E814207DAE84800680078D9
:1025D000401CE6490968087010E0E348007810F0F4
:1025E000040F0BD1E2480088122807DA701C40451E
:1025F00004DADF480088401CDD490880DA480078AA
:1026000010F0020F75D0FEF76CFB012300933F23FF
:102610007F2200210846FEF784FF0123009309234F
:102620007F2219460020FEF7D4FECF48007810F034
:10263000040F41D0CD4800680178CC480068001DE7
:1026400050F82100C168C94800680278C74800688E
:10265000001D50F822000078095C701EC54A115414
:10266000C24800680178C1480068001D50F8210088
:1026700043680093AFF6B013012211460220FEF723
:1026800057FEBA4800680178B8480068001D50F845
:102690002100C168B54800680278B4480068001D90
:1026A00050F8220000780B5C0093B3A3012211467E
:1026B0004020FEF73DFE1AE0B148008848B9AC481A
:1026C000008830B9AFA3012211460220FEF730FE88
:1026D0000DE0A74803885B1CA9480288521CCDE97D
:1026E0000023AAA3012211460220FEF721FE0024A6
:1026F0007DE07FE0002576E0D4B9CDB99C48008824
:1027000060B99F48008848B985230093AFF2D81379
:10271000FE2230210620FEF70BFE62E085230093A7
:10272000AFF2EC13012230210620FEF701FE58E043
:10273000132000FB0450401E86B246454FDA8C48F9
:102740000088A84227D18E480088A04223D189481A
:10275000805D78B989233022A2EBC40105EB4502E4
:102760000093062303EB4200AFF23423FE22FEF770
:10277000DFFD36E07F48835D3022A2EBC40105EB2C
:1027800045020093062303EB4200AFF25423FE22DE
:10279000FEF7CEFD25E07748805D78B989233022A9
:1027A000A2EBC40105EB45020093062303EB4200B4
:1027B000AFF27C230122FEF7BBFD12E06D48835D82
:1027C0003022A2EBC40105EB45020093062303EB84
:1027D0004200AFF29C230122FEF7AAFD01E008248B
:1027E0001525681C85B2132D86DB601C84B2052C70
:1027F00080DB2DE0069B0093AFF6343301220620E8
:102800000499FEF795FD5A4602A90720FFF796FDA9
:1028100002AB0093AFF65033012244200499FEF737
:1028200087FD584607F055FD072808D989230093EE
:10283000AFF2FC2301226D200499FEF779FD882375
:102840000093AFF20C33012273200499FEF770FD60
:10285000514800684078504909680978084448455B
:1028600008D184230093AFF23033012238217A203B
:10287000FEF75EFD00BF8DE50FB47CB504460D4646
:1028800016463948007810F0020F02D07CBC5DF883
:1028900014FB0AA801900198009032462946204670
:1028A000099BFEF7DAFA00BFF0E72DE9FF4F87B08A
:1028B00007460E4691469846DDF85CB0DDF854A018
:1028C0000020059000BF04902748007810F0020F08
:1028D00002D00BB0BDE8F08F1498504505DA14987B
:1028E0000590CDF850A0DDF814A0149916988842F0
:1028F00001DA169800E0149816901698504501DDFC
:10290000169800E0504616901499A1EB0A0008F0C2
:102910003AF9CDE902011699A1EB0A0008F033F962
:10292000CDE90001DDE9022307F078FF04460D46FA
:102930001BF0010F64D1484608F03CF922462B46B3
:10294000CDE9000108F086F9CDE9020108F0EEF8C2
:1029500004901BF0060F2FD10123009306EB080310
:1029600007EB0902314619E0A900002020010020F0
:102970002A010020681800205B202563205D0000EC
:102980002C0100204241434B000000004C3A2564DA
:1029900020433A2564000000240100203846FEF759
:1029A000C0FD0423009306EB080304983A1831464F
:1029B0003846FEF7B6FD6AE00BF00600022866D145
:1029C0000123009306EB080307EB09023146384662
:1029D000FEF7A7FD0123009306EB080304983A18BD
:1029E00031463846FEF79DFD0023009306EB0803B1
:1029F00007EB090206EB08013846FEF7EAFC46E061
:102A0000404608F0D7F822462B46CDE9000108F0F1
:102A100021F9CDE9020108F089F804901BF0060FB6
:102A200014D10123009306EB080307EB090231469A
:102A30003846FEF776FD042300930498331807EB1D
:102A4000090231463846FEF76CFD20E00BF0060027
:102A500002281CD10123009306EB080307EB0902AF
:102A600031463846FEF75DFD012300930498331884
:102A700007EB090231463846FEF753FD0023009369
:102A800006EB08033A4631463846FEF7A2FC00BF83
:102A90001FE72DE9FF4F91B080460F469146DDE9D3
:102AA0001EA600200F900E9000BF00BF00210A91CB
:102AB0000B91CDF8248008970790834606900590E7
:102AC000B448007810F0020F02D015B0BDE8F08FC6
:102AD000B24503DACDF83CA0B2460F9E484608F056
:102AE00069F8CDE90201209808F064F8CDE9000109
:102AF000DDE9022307F092FECDE90C01AAEB060006
:102B000008F041F8CDE90201149808F053F8CDE936
:102B10000001DDE9022307F081FE04460D46002096
:102B20000E903CE00AA80FC807F0C6FDCDE90A01E7
:102B3000DDE90A0107F0CAFF219951F820B00E988B
:102B400040440690B34512DBD34510DAABEB0600E8
:102B500008F019F822462B46CDE9000108F07AF872
:102B6000CDE9020107F0E2FF3844059007E0B345E4
:102B700001DA059703E014983844401E05900123BC
:102B80000093DDE90532DDE90810FEF722FC069826
:102B90000990059808900E98401C80B20E900E98EF
:102BA0004845BFD30123009314983844431E08EBD3
:102BB0000900421E39464046FEF7B3FC002E14DAE7
:102BC000704207F0E0FF22462B46CDE9000108F0F5
:102BD00041F8CDE9020107F0A9FF3844079001222E
:102BE00008F101000799FEF78AF800BF6DE72DE9AB
:102BF000FF4705460E4617469846DDE90C9A0E9C9F
:102C00006448007810F0020F01D0BDE8FF872288E9
:102C10006368CDE9009ACDE9022343463A4631463E
:102C20002846FFF736FF00BFEFE730B50A4600231E
:102C3000012100BF00BF09E0446854F82140456805
:102C400045F823405C1CA3B24C1CA1B204888C4202
:102C5000F2DC0488641E456845F8242030BD2DE967
:102C6000FF4F89B080468A4615461C46DDE917B9F4
:102C700000200890079006900590002600270AEB98
:102C800004000490002003904248007810F0020FE6
:102C900002D00DB0BDE8F08F0121199821EAD010C3
:102CA00003905D450BD34C4509D3039BCDE90093BD
:102CB0005B4651464046169AFEF729FD58E02846E5
:102CC00008F062FB0290584608F05EFB0190029902
:102CD00008F078FA0890204608F056FB0290484623
:102CE00008F052FB0190029908F06CFA0790002757
:102CF0003CE0384608F048FB0190089908F058FB82
:102D0000029008F021FB80B2069000262AE03046AF
:102D100008F03AFB0190079908F04AFB029008F08E
:102D200013FB80B205905B46CDF80090169ADDE962
:102D30000510FEF7D8FC38B1049A911B08EB070088
:102D4000039AFDF7DCFF0BE0039B0BB9012300E0C6
:102D50000023DAB2049B991B08EB0700FDF7CFFFB5
:102D6000701C86B2A642D2D3781C87B2AF42C0D3C1
:102D7000199810F0400F0BD001230AEB04000093C8
:102D8000431E08EB0500421E51464046FEF7C9FBB4
:102D900000BF7EE7A90000207CB5002514E069464D
:102DA000284601F084FE064666B9FF4850F82540E3
:102DB00044B1012C06D0D4E9020100EB810060642B
:102DC0000198A064681CC5B23F2DE8DD7CBD00BF42
:102DD00000BF02E0282001F095FFF44800780028A9
:102DE000F8D0F34800686421B0FBF1F0F0490860C6
:102DF0000846006828B90020EE490870FF2001F05D
:102E000096FE02F0C9F80446E94800686421484388
:102E1000E9490860204602F0C3F800BF02F0BCF8A0
:102E20000446E5480068E54908600020E24908607A
:102E3000204602F0B5F8E1480068DD490968B0FBBA
:102E4000F1F0C0F16400DB49087002F04CF8FFF7C4
:102E5000A3FF142001F056FFE0E700B587B003237D
:102E600000228021D648CDE90323CDE901014FF6A8
:102E7000FE7300933E2300F5FE720021AFF2B10015
:102E800001F026FC06AACFA13E2001F08FFD07B07D
:102E900000BD002400BF00BF02F07EF80446C64813
:102EA0000068401CC4490860204602F079F802F02E
:102EB00018F8F1E700B587B0032300228021C54848
:102EC000CDE90323CDE901014FF6FF7300933F23C2
:102ED00000F5FE720021AFF2450001F0F9FB06AAF1
:102EE000BDA13F2001F062FD07B000BD04E000225B
:102EF00000F8012B4A1E91B20029F8D1704770B535
:102F0000C821B948FFF7F2FF00230FE0581C85B233
:102F100003EB8300B44901EB800405EB850001EB72
:102F20008006002020706660581C83B2092BEDD308
:102F300003EB8300AC4901EB80040020207060604B
:102F40000846AA49086070BD70B54FF41371A848CF
:102F5000FFF7CCFF4FF480719348FFF7C7FF0024C1
:102F600013E0601CC5B2C4EBC40000EB4000A049F4
:102F700001EB8003C5EBC50000EB400001EB8006D0
:102F80005E619CA0D864601CC4B2062CE9D3C4EB7B
:102F9000C40000EB4000964901EB8003002058611B
:102FA00094A0D8640020944908609148934908602F
:102FB00070BD0021924A1170002004E00021914A66
:102FC0001154411CC8B20828F8D300218E4A117050
:102FD0008E4A11708E4A11608E4A1160704700202F
:102FE0008D4908608D4908708D4908708D490870B9
:102FF0008D4908708D4908606F4908606F49086005
:103000006B4908606949087089490870704710B5B4
:1030100001F058FFFFF7E3FFFFF7CBFFFFF794FF47
:10302000FFF76DFF00F03AFF01F032FAFFF742FFC1
:10303000FFF713FF01F052FF10BD7B480078012815
:1030400008D176480078FF2804D274480078401CE4
:103050007249087070477749694A1278885C6949F3
:10306000095C744A515C01EBC001684A11707047F9
:1030700010B500246C480078012830D101F08CFF95
:1030800004466648007820B164480078401E6349D1
:10309000087062480078F8B961480078E0B9FFF735
:1030A000DAFF41485949097850F821005849086029
:1030B000564800785449097888420DD05448006831
:1030C000806B401C52490968886358480068401C5E
:1030D0005649086001F07BFF204601F061FF10BDFA
:1030E00010B5002450480078012811D101F054FF98
:1030F00004464A48007840B949480078FF2804D27D
:1031000047480078401C46490870204601F048FFB7
:1031100010BD10B5002401F03FFF04463F48007881
:10312000F8B93F480078E0B9FFF795FF1E483749E6
:10313000097850F82100364908603448007832494F
:10314000097888420DD032480068806B401C3049B5
:103150000968886335480068401C3449086001F0FC
:1031600031FF204601F01CFF10BD10B500242E4891
:10317000007801286ED101F00FFF0446274800783F
:1031800070B92748007860B125480078401E24496E
:1031900008700846007828B9204601F001FF4BE08E
:1031A00055E050E04BE055E0BC1D002048010020F8
:1031B000400100203C010020580100204401002073
:1031C000BC19002075432F4F532D4949205374617A
:1031D00074000000BC1B002075432F4F532D49493C
:1031E0002049646C65000000A41800203401002010
:1031F000BC1E00203F00000068010020600100208C
:103200004D0100204E0100204B0100204C01002008
:10321000640100205C0100207801002049010020A9
:103220004A010020570100205601002030010020F3
:10323000740100200BBA0008FFF76BFF0AE020467C
:1032400001F0AEFE06E0204601F0AAFE02E02046B4
:1032500001F0A6FE10BD10B5F848007890B9FFF750
:10326000FAFEF7480078F7490870F748F4490978FA
:1032700050F82100F549086008460068F4490860E4
:1032800001F091FE10BD10B50024022001F03AFDBE
:1032900001F082FE04460020EE490860204601F05D
:1032A0007FFE142001F02EFD01F076FE0446E94871
:1032B0000068E94908600120E8490870204601F0EB
:1032C0006FFE10BD70B5002601F05CFE01F064FEDB
:1032D0000646E3480068401CE1490860304601F0BA
:1032E0005FFED6480078012857D1DE48007820B12B
:1032F000012804D0022809D103E001250BE00025B4
:1033000009E001250120D749087004E001250020CB
:10331000D449087000BF00BF05B970BDD248046829
:1033200037E001F039FE0646E06A70B3E06A401EFD
:10333000E062E06A48BB94F8300010F0370F09D023
:1033400014F8300F00F0C800207001206070A4F164
:10335000300402E0002084F8310094F8300010F0CE
:10336000080F12D104F13404A078C049097840EA6A
:103370000100BE4908702078BD49085C617840EAC8
:10338000010014F83419BA4A50546469304601F007
:1033900007FE94F832003F28C3D100BFBDE747F2D3
:1033A00017207047704710B590F8342001F10B03D7
:1033B0009B5C90F83540E443E4B2234001F10B04F8
:1033C000A35423469B5C33B98B7A90F83640E44390
:1033D000E4B223408B7210BD2DE9F04F05460F4635
:1033E00090469946A87AA3490E5C05F10B00805DD2
:1033F00011F800B00BEBC60000F0FF0A924850F83D
:103400002A40002004F12004E0602760207C6FEA5D
:103410000801C9B200EA0100207484F81190207CF0
:10342000A4F1200410F0080F0DD194F836008F4954
:10343000097808438D4908708D48805D94F83510EF
:1034400008438B49885529462046FFF7ACFF504674
:10345000BDE8F08F10B57E4A1268D0617C4A1268D0
:1034600092F8343000F10B02D25C794B1B6893F870
:1034700035301A43764B1B6893F8344000F10B0348
:103480001A55827A724B1B6893F836301A4382724F
:103490006F4A126892F83410754A525C6C4B1B6884
:1034A00093F83530DB43DBB21A40714B5A541A465D
:1034B000525C52B9664A126892F83620D243D2B2B0
:1034C0006A4B1B781A40694B1A7010BD01460022E6
:1034D0008A72002005E0002301F10B021354421C04
:1034E000D0B20828F7D3704705E011F8013B00F887
:1034F000013B531E9AB2002AF7D1704701460020C3
:1035000002E0491C421CD0B20A78002AF9D1704767
:103510002DE9FF4F81B005460F4690469946DDE9FB
:103520000EAB0020009001F037FD00905248046877
:10353000D4B304F1180454F8040C4F4908600098FF
:1035400001F02EFD44F8187CA576002020766076E8
:10355000606144F814BC44F80CAC44F8108C10982A
:1035600024F8080C24F8069C0020E077E810207767
:1035700005F00700E076217F01208840A077E17EFA
:1035800001208840607700206060E060A0602062D9
:10359000A0626062E0622063AFF2A8306063A4F1D1
:1035A00018044FF0000607E06AE0002104F1500023
:1035B00040F82610701CC6B2012EF6DB204601F042
:1035C000E0FC01F0E9FC00901F4840F8254000981D
:1035D00001F0E6FC204601F082FC01F0DDFC0090E9
:1035E0002148006860610020A0611F48006810B198
:1035F0001D48006884611C48046004F13404A0780C
:103600001A49097840EA01001849087020781849D9
:10361000085C617840EA010014F83419144A5054E7
:103620001648007800F1010014490870009801F074
:10363000B7FC002005B0BDE8F08F00005601002067
:103640004C0100204B010020BC1D00206401002023
:103650005C010020580100204001002048010020AA
:10366000780100206C010020680100204D0100203D
:103670004E0100200BBA0008600100205701002015
:10368000009801F08DFC422005B0BDE8F08F0000ED
:103690002DE9F05F05460F4691461E464FF0000BA0
:1036A0002878052804D0012030700020BDE8F09F64
:1036B00009F0800ABAF1000F04D029F080094FF018
:1036C000010801E04FF000080020307001F064FCB8
:1036D0008346B9F1000F30D0B9F1010F41D0B9F1F3
:1036E000020F03D0B9F1030F4ED113E0288900EA8D
:1036F0000704BC4208D1B8F1010F07D12889E14382
:1037000089B20840288101E070203070584601F0ED
:1037100047FC40E0288900EA070444B1B8F1010FF2
:1037200007D12889E14389B20840288101E070204F
:103730003070584601F034FC2DE02889C04380B237
:1037400000EA0704BC4206D1B8F1010F05D128896F
:103750002043288101E070203070584601F020FCA1
:1037600019E02889C04380B200EA070434B1B8F1F7
:10377000010F05D128892043288101E07020307095
:10378000584601F00DFC06E0584601F009FC002403
:103790006F20307000BF00BF204687E72DE9F04161
:1037A00006460D460027FA48007820B11020287000
:1037B0000020BDE8F08101F0EFFB0746F548046802
:1037C00084B100684068F3490860052020702681B4
:1037D00000206060F0A0E060384601F0E1FB0020CE
:1037E000287004E0384601F0DBFB72202870204688
:1037F000DFE730B501464A6808682AB9CC686060DE
:1038000028B10025456002E0106000B142608B687D
:1038100000255D6230BD2DE9F04106460F46904619
:10382000B468002004F1280460602780207A00F04A
:10383000DF00207284F80980207AA4F12804A8B956
:1038400004F13404A078D549097840EA0100D3494D
:1038500008702078D249085C617840EA010014F8C9
:103860003419CF4A50544FF0010500E0002530468E
:10387000FFF7BFFF2846BDE8F0812DE9F047044679
:10388000894615464FF0000AC148007820B10F2044
:1038900028702046BDE8F0872078052803D0012055
:1038A00028702046F6E701F077FB8246606808B191
:1038B000012700E00027B9F1000F03D0B9F1010F93
:1038C0003DD119E08FB9B4A0E06000202070B1486C
:1038D0000068606000202081AE480460504601F01E
:1038E0005FFB00202870002605E0504601F058FBE1
:1038F00049202870264629E0D4F8048006E00222F8
:1039000000214046FFF787FFD8F80080B8F1000F8C
:10391000F5D1A1A0E060002020709E4800686060A2
:10392000002020819B480460504601F039FB012FA4
:1039300001D1FFF7EEFB00202870002606E050467C
:1039400001F02EFB07202870264600BF00BF30463E
:10395000A0E72DE9F04105460E46144600278C48A5
:10396000007820B1112020700020BDE8F08101F026
:1039700013FB07462878052806D0384601F010FBCF
:10398000012020700020F0E7E86830603068FFF721
:10399000B5FD8046384601F003FB0020207040460C
:1039A000E3E72DE9F04105460E4614460027784826
:1039B000007818B112202070BDE8F08101F0ECFA17
:1039C00007462878052805D0384601F0E9FA012095
:1039D0002070F1E7EE60384601F0E2FA0020207036
:1039E00000BFE9E7F0B51446059E6E4F3F6897F8B3
:1039F000307047F02007DFF8ACC1DCF800C08CF86D
:103A000030700027DFF89CC1DCF800C08CF8317002
:103A1000644F3F68FE62634F3F6879620C828B742B
:103A2000604F3F688F6047680F6000274F60C86035
:103A3000456805B1696041605A4F3F6897F8342086
:103A4000574FBF5CDFF85CC1DCF800C09CF835C0A4
:103A50006FEA0C0C0CF0FF0C07EA0C07DFF840C112
:103A60000CF802706746BF5C7FB94E4F3F6897F80D
:103A70003670FF43FFB2DFF824C19CF800C007EAAC
:103A80000C07DFF818C18CF80070F0BD2DE9FF4F6E
:103A900087B005460F469146149E002001903C4891
:103AA000007828B10220307000200BB0BDE8F08F04
:103AB0003D48007818B10D2030700020F5E72878D7
:103AC000052803D0012030700020EEE709F0800ABD
:103AD000BAF1000F04D009F07F094FF0010801E0AE
:103AE0004FF0000801F058FA0190B9F1000F5DD0D5
:103AF000B9F1010F7FD0B9F1020F03D0B9F1030F73
:103B00006CD122E0288900EA0704BC4211D1B8F147
:103B1000010F04D12889E14389B208402881214856
:103B200000680485019801F03BFA002030702046BF
:103B3000BBE70A9B00934B463A4602A92846FFF78B
:103B400051FF019801F02CFA7FE0288900EA070470
:103B50008CB1B8F1010F04D12889E14389B2084042
:103B60002881104800680485019801F019FA0020A6
:103B70003070204699E70A9B00934B463A4602A9CB
:103B80002846FFF72FFF019801F00AFA5DE00000D8
:103B900049010020380100203F0000004D010020B5
:103BA0004E0100205C0100204A0100202889C0430A
:103BB00080B200EA0704BC4211D1B8F1010F02D172
:103BC000288920432881C94800680485019801F0AC
:103BD000E7F900203070204667E70CE02DE00A9BF3
:103BE00000934B463A4602A92846FFF7FBFE019890
:103BF00001F0D6F929E02889C04380B200EA070421
:103C00007CB1B8F1010F02D1288920432881B7483F
:103C100000680485019801F0C3F900203070204647
:103C200043E70A9B00934B463A4602A92846FFF712
:103C3000D9FE019801F0B4F907E0019801F0B0F95C
:103C400000246F20307020462FE700BFFFF761FA95
:103C500001F0A2F90190A548006890F8310020B366
:103C6000A248006890F831B00020A049096881F8A6
:103C7000310002A8FFF7BDFD00209C49096881F8CA
:103C80003000019801F08CF90024BBF1010F06D03F
:103C9000BBF1020F02D10E20307003E000BF0A20FA
:103CA000307000BF00BF2046FFE690480068048DDA
:103CB000B8F1010F20D1B9F1000F10D0B9F1010F07
:103CC0000ED0B9F1020F03D0B9F1030F0CD100E00F
:103CD00000BF2889E14389B2084028810BE000BF7A
:103CE00028892043288106E0019801F059F96F20C6
:103CF00030700020D9E600BF019801F051F9002092
:103D000030702046D1E670B5002501F045F9054632
:103D100076480068048D284601F042F9204670BDBF
:103D20002DE9FC5F0446894692461E46002000901D
:103D30002078052804D0012030700020BDE8FC9FC9
:103D400001F02AF90090BAF1000F03D0BAF1010F87
:103D50000CD106E020896FEA090189B20840208170
:103D60000BE0208940EA0900208106E0009801F07C
:103D700017F9712030700020E0E700BF4FF0000B12
:103D800065685DE0A87C50B301283DD0022802D0D0
:103D900003284CD112E02089298A00EA0107288AE9
:103DA000B8420AD1002239462846FFF734FD804642
:103DB000B8F1010F01D14FF0010B3FE02089298AB2
:103DC00000EA010757B1002239462846FFF723FDD4
:103DD0008046B8F1010F01D14FF0010B2EE0208990
:103DE000C04380B2298A00EA0107288AB8420AD172
:103DF000002239462846FFF70EFD8046B8F1010F34
:103E000001D14FF0010B19E02089C04380B2298A0B
:103E100000EA010757B1002239462846FFF7FBFCAC
:103E20008046B8F1010F01D14FF0010B06E0009878
:103E300001F0B6F86F20307000207FE700BF2D68DA
:103E4000002D9FD1009801F0ABF8BBF1010F01D11B
:103E5000FFF75FF901F0A0F8009020890190009829
:103E600001F09EF800203070019867E72DE9F041DD
:103E700004460D4600272078052804D0012028702C
:103E80000020BDE8F08101F087F807462689384612
:103E900001F086F8002028703046F2E72DE9F04165
:103EA00050211348FFF722F800250EE0681C86B267
:103EB0000F4800EB051400EB061700202070676028
:103EC000AFF22C30E060681C85B2042DEED30848B8
:103ED00000EB0514002020706060AFF24430E06019
:103EE000034804490860BDE8F08100005C0100203F
:103EF0006C190020380100202DE9F04106460D46DE
:103F00004FF000083078022804D0012028700020EB
:103F1000BDE8F08101F040F880467468E08A78B12D
:103F20002169081D20610F68E08A401EE082A168B7
:103F30002069884201D1606820610020287002E079
:103F40001F2028700027404601F02AF83846DFE796
:103F50002DE9F04106460F464FF00008FF48007873
:103F600010B10020BDE8F08101F016F88046FC4851
:103F70000568006820B1FA4800684068F8490860A0
:103F8000404601F00DF83DB301F006F88046F548D3
:103F90000468C4B100680068F2490860404600F057
:103FA000FFFF666006EB8700A060E6602661A782DF
:103FB0000020E08202202870002028816C602846C2
:103FC000FFF784FA08E0E64800686860E4480560A6
:103FD000404600F0E5FF00252846C3E72DE9F047FD
:103FE0000446894615464FF0000A2078022804D07E
:103FF000012028702046BDE8F087D848007818B125
:104000000F2028702046F6E700F0C6FF8246A07A0F
:1040100010B14FF0010801E04FF00008B9F1000FB6
:1040200003D0B9F1010F45D11FE0B8F1000F15D150
:104030006668CC4800683060CA480660002020707E
:10404000C7480068606000202081C5480460504671
:1040500000F0A6FF00202870002705E0504600F081
:104060009FFF4920287027462BE005E00223042209
:1040700000212046FFF7B0F9A07A0028F6D1666843
:10408000B84800683060B748066000202070B44827
:104090000068606000202081B1480460504600F054
:1040A0007FFFB8F1010F01D1FFF733F8002028702E
:1040B000002706E0504600F073FF072028702746CF
:1040C00000BF00BF384696E770B50546002600F0F1
:1040D00063FF06466C686068E060606820610020ED
:1040E000E082304600F05CFF002070BD2DE9F04713
:1040F0000746884615464FF000093878022804D054
:10410000012028700020BDE8F0879448007818B19D
:10411000022028700020F6E79348007818B10D209F
:1041200028700020EFE700F037FF81467C68E08AC6
:1041300098B12169081D20610E68E08A401EE08266
:10414000A1682069884201D160682061484600F07A
:1041500027FF002028703046D5E78448006890F893
:10416000300040F004008149096881F830000020E7
:104170007E49096881F831007C480068C0F82C80CD
:104180003846FFF767F9484600F00AFFFEF7C1FF1F
:1041900000F002FF81467548006890F8310020B1B8
:1041A00001280DD002280AD105E070480068066A8F
:1041B000002028700DE000260E20287009E000BFC6
:1041C00039466A480068FFF7EEF800260A20287092
:1041D00000BF00BF00206549096881F830006349CD
:1041E000096881F8310061490968C8615F49096857
:1041F0000862484600F0D4FE304684E72DE9F041DD
:1042000004460F4615464FF000082078022804D0D7
:10421000012028700020BDE8F08100F0BDFE80463E
:10422000A07A20B300267FB1012F0CD107E0022332
:10423000042200212046FFF7CFF8701CC6B2A07AF6
:104240000028F4D109E000BF022304220021204607
:10425000FFF7C2F8701CC6B200BF00BF404600F0B6
:104260009FFEFEF756FF0E2028703046D3E74046EB
:1042700000F096FE0020287000BFCCE72DE9F04149
:1042800005460E4600272878022802D00120BDE806
:10429000F08100F081FE0746A87A60B10023042275
:1042A00031462846FFF798F8384600F079FEFEF7C9
:1042B00030FF0020EBE76C68E08AA18A884204DBCB
:1042C000384600F06DFE1E20E1E7E168081DE06061
:1042D0000E60E08A401CE082D4E90210884201D1DD
:1042E0006068E060384600F05BFE0020CFE72DE913
:1042F000F04105460E4600272878022802D001200A
:10430000BDE8F08100F048FE0746A87A60B10023BE
:10431000042231462846FFF75FF8384600F040FE99
:10432000FEF7F7FE0020EBE76C68E08AA18A88427E
:1043300004DB384600F034FE1E20E1E761682069A6
:10434000884201D1A06820612069001F2061206996
:104350000660E08A401CE082384609E049010020FE
:1043600034010020700100204A0100205C0100207F
:1043700000F016FE0020C3E72DE9F04105460F4688
:1043800016464FF000082878022802D00120BDE828
:10439000F08100F001FE8046A87AE8B116F0010F26
:1043A0000AD005E00023042239462846FFF714F816
:1043B000A87A0028F6D105E00023042239462846D1
:1043C000FFF70AF8404600F0EBFD16F0040F01D1AC
:1043D000FEF79FFE0020DAE76C68E08AA18A884237
:1043E00004DB404600F0DCFD1E20D0E716F0020F93
:1043F0000BD061682069884201D1A06820612069E2
:10440000001F20612069076009E0E168081DE06085
:104410000F60D4E90210884201D16068E060E08A50
:10442000401CE082404600F0BBFD0020AFE72DE9D4
:10443000F04705460C464FF0000A2878022802D0C3
:104440000120BDE8F08700F0A7FD8246A87A20741D
:1044500005F10B0804F10809002705E018F8010B25
:1044600009F8010B781CC7B2082FF7D36E68F08AE1
:1044700018B130690068206001E000202060F08AF7
:10448000A080B08AE080504600F08AFD0020D8E786
:104490002DE9F04160211048FEF728FD00240DE0D1
:1044A000601C86B204EB44000B4901EBC00506EB2F
:1044B000460001EBC0072F60601C84B2032CEFD3D1
:1044C00004EB4400044901EBC005002028600846C5
:1044D00002490860BDE8F081082100207001002039
:1044E0002DE9FF5F814688460020009000F054FDD2
:1044F0000090F94850F8280030B1009800F050FDC5
:10450000282004B0BDE8F09FB9F1FF0F03D1F348B4
:10451000006890F83290F04850F8294024B900988B
:1045200000F03EFD2920ECE7012C04D1009800F0BA
:1045300037FD4320E5E74FEAE80608F0070003905F
:104540000120B04000F0FF0A012103988140C8B269
:1045500002900020E04941F82900084640F8284030
:1045600094F8347094F83600019094F835B0DC4833
:10457000C05D10EA0B0F1ED0D948C05D6FEA0B0179
:10458000C9B20840D649C8550846C05D38B9D548B3
:1045900000780199C943C9B20840D2490870D1488E
:1045A000007840EA0A00CF490870CD48805D029942
:1045B0000843CB498855E569F5B105F10B00C05DAD
:1045C0006FEA0B01C9B2084005F10B01C855084656
:1045D000C05D28B9A87A0199C943C9B20840A87238
:1045E000A87A40EA0A00A87205F10B00805D0299E2
:1045F000084305F10B01885504F8328FA670039823
:10460000607084F804A00298E070A4F1320400986D
:1046100000F0C6FCB4480078012801D1FEF779FD0E
:1046200000206EE72DE9FE4F06460F4690461C46D9
:104630004FF0000900F0B0FC8146AC48007828B18A
:10464000484600F0ADFC3C20BDE8FE8FA24850F883
:10465000240058BB0120A04941F82400484600F03E
:104660009FFC002342463946304600F03DFC82461E
:104670000023009301931A46514620460293FEF709
:1046800047FF054635B99848007801280CD1FEF758
:1046900040FD09E000F080FC814600208E4941F891
:1046A0002400484600F07CFC2846CDE7484600F050
:1046B00077FC2820C8E712F0010F08D012F0020F93
:1046C00005D002E0491E002308C00029FAD1704736
:1046D0002DE9FF4F85B08046894692461C46DDE9AC
:1046E00012B6169F0020039000F056FC03907F48FE
:1046F000007830B1039800F053FC3C2009B0BDE8CD
:10470000F08F754850F8240088BB0120724941F8A9
:104710002400039800F044FC3A4630461499FFF711
:10472000CAFF3B4652464946404600F0DDFB049036
:10473000DDE914125B468DE8860032462046049976
:10474000FEF7E6FE054635B96748007801280CD12A
:10475000FEF7DFFC09E000F01FFC039000205E493B
:1047600041F82400039800F01BFC2846C6E7FFE749
:10477000039800F015FC2820C0E72DE9F04105461C
:1047800000275A48007810B14020BDE8F0813F2D45
:1047900001D13E20F9E700F0FFFB0746FF2D03D1D2
:1047A0004E48006890F832504B4850F8254024B9E4
:1047B000384600F0F5FB4320E7E7012C04D13846EA
:1047C00000F0EEFB3D20E0E714F8340F4449085CAC
:1047D0006178C943C9B208402178414A505414F85D
:1047E00034091146085C40B994F83600C043C0B2A1
:1047F0003C49097808403B490870E06918B12046F7
:10480000E169FEF7D0FD666A16B13046FEF7F1FFAA
:104810000020E06284F8300084F8310034480078E9
:10482000FF2804D232480078401C314908703846CD
:1048300000F0B6FBFEF7B6FD00F0AEFB07462C48D5
:10484000007820B12A480078401E29490870204687
:1048500000F046FB27480078401E264908700020DB
:104860001D4941F82500A06930B9002061698861BF
:1048700021496069086005E0D4E905014861D4E98F
:10488000051088611D48006860611C4804601CA018
:10489000E064384600F084FB13480078012801D119
:1048A000FEF737FC002070E72DE9F04104460027B1
:1048B0003F2C02D13E20BDE8F081FF2C22D100F038
:1048C0006BFB07460548006890F83760384600F0F3
:1048D00067FB3046EFE70000BC1D00205C010020B4
:1048E0004E0100204D01002056010020490100200A
:1048F0004A010020570100206801002060010020CB
:104900003F00000000F048FB0746F74850F82450ED
:1049100025B9384600F044FB4320CCE7012D04D1F3
:10492000384600F03DFB3D20C5E73F2085F83700C5
:10493000384600F035FB0020BDE72DE9F04706467C
:104940000F4614464FF00008E848007820B11120C7
:1049500020700020BDE8F08700F01EFB8046FF2E8F
:1049600003D1E348006890F83260DF4850F82650E1
:1049700035B9404600F014FB432020700020E9E7E1
:10498000012D06D1404600F00BFB43202070002093
:10499000E0E7E86C38603868FEF7B0FD81464046D5
:1049A00000F0FEFA002020704846D3E72DE9F041E0
:1049B00006460F4614464FF00008CC48007818B160
:1049C00012202070BDE8F08100F0E6FA8046FF2E4C
:1049D00003D1C748006890F83260C34850F82650A9
:1049E0002DB9404600F0DCFA43202070EAE7012DA3
:1049F00005D1404600F0D4FA43202070E2E7EF648E
:104A0000404600F0CDFA0020207000BFDAE770B514
:104A10000546002600F0C0FA0646B34850F8254087
:104A200024B9304600F0BCFA462070BD012C04D1F8
:104A3000304600F0B5FA4320F7E794F8300010F064
:104A4000080F2FD014F8300F00F0F700207014F882
:104A5000300910BBE06AE0B904F13404A078A5493C
:104A6000097840EA0100A34908702078A249085C4F
:104A7000617840EA010014F834199F4A50543046D6
:104A800000F08EFA9D480078012809D1FEF741FB1D
:104A900006E0304600F084FA02E0304600F080FA8A
:104AA0000020C2E7304600F07BFA4420BDE72DE944
:104AB000F04707460D464FF0000A00202860686066
:104AC00000F06AFA8246FF2F03D18948006890F807
:104AD0003270854850F827402CB9504600F060FAF3
:104AE0004320BDE8F087012C04D1504600F058FA6D
:104AF0004320F6E7208A10F0010F04D1504600F061
:104B00004FFA4520EDE70026D4F80C90D4F8088041
:104B1000504600F045FA00E0761C58F8041B0029C6
:104B2000FAD02E60A9EB060068600020D9E72DE9D5
:104B3000F04105464FF0000800F02EFA8046FF2DA8
:104B400005D16B48006890F83250012608E06848AB
:104B5000006890F83200A84201D1012600E000264A
:104B6000614850F825402CB9404600F019FA482019
:104B7000BDE8F081012C04D1404600F011FA432039
:104B8000F6E794F834705C48C05D94F83510C9437A
:104B9000C9B208405849C8550846C05D40B994F8A4
:104BA0003600C043C0B253490978084051490870E3
:104BB00094F8300040F0080084F83000404600F0DF
:104BC000EFF9012E01D1FEF7A4FA0020D0E72DE97C
:104BD000F04105460E46002700F0DEF90746FF2D9E
:104BE00003D14348006890F832503F4850F82540C0
:104BF0002CB9384600F0D4F92920BDE8F081012C09
:104C000004D1384600F0CCF94320F6E7542221467F
:104C10003046FEF769FC384600F0C2F90020ECE7A8
:104C20002DE9F04704460E4617464FF0000900F004
:104C3000B3F98146FF2C02D12D48056802E02A48CD
:104C400050F8245005F1500050F82680484600F0F6
:104C5000A7F9002038704046BDE8F08770B50446DB
:104C6000002600F099F9064625480078012806DB61
:104C700096202070304600F093F9012070BD204846
:104C800005780078401C1E490870304600F088F90D
:104C9000002020702846F1E72DE9F04704460E4633
:104CA000174698464FF0000900F076F98146FF2C30
:104CB00002D10F48056802E00B4850F8245005F176
:104CC000500040F82670484600F06AF9002088F845
:104CD0000000BDE8F08710B50548006800F002F953
:104CE000FF20FFF74AFD10BDBC1D00204901002038
:104CF0005C0100204D0100204E01002056010020E3
:104D00007401002070B5054600266748007800B1A0
:104D100070BD6648007800B1FAE73DB300F03CF999
:104D200006466348006890F834406248005D604978
:104D3000096891F83510C943C9B208405D49085562
:104D40000846005D50B95A48006890F83600C043E4
:104D5000C0B259490978084057490870544800685A
:104D6000C562304600F01CF9FEF7D3F900BFCFE76B
:104D70002DE9F04104460D4616461F464A48007884
:104D800010B15520BDE8F0814848007808B13220C4
:104D9000F8E7B81CC82148434FF47A71B0FBF1F131
:104DA0004FF461606043C5EB051200EB82003044B4
:104DB00000EBC00202EB001001EBC0084046FFF719
:104DC000A1FF0020DEE770B5054600263F2D01DB80
:104DD0002A2070BD00F0E0F80646384850F825401B
:104DE00024B9304600F0DCF84320F2E7012C04D16E
:104DF000304600F0D5F84320EBE7E06A20B93046B2
:104E000000F0CEF85020E4E70020E06294F8300093
:104E100010F0370F09D014F8300F20F03700207051
:104E200001206070A4F1300402E0002084F8310019
:104E300094F8300010F0080F18D104F13404A07871
:104E40001D49097840EA01001B490870207819497A
:104E5000085C617840EA010014F83419154A50548E
:104E6000304600F09DF8FEF754F902E0304600F0BD
:104E700097F80020ADE770B5002500F08DF80546E5
:104E80000F480468284600F08BF8204670BD70B5C6
:104E90000446002500F080F80546094804602846CD
:104EA00000F07EF870BD0000490100204A0100209A
:104EB0005C0100204E0100204D010020BC1D00209F
:104EC000780100203048802102E0491E002204C001
:104ED0000029FAD12D4A2E4B1A607047704770474F
:104EE000704770477047704770B5044610464FF0E2
:104EF00080750560051F28462C60264E051F284634
:104F00002E604FF01236051F28462E604FF00336F4
:104F1000051F28462E604FF00236051F28462E60DA
:104F20007610051F28462E60051F284629604FF081
:104F30001136051F28462E604FF01036051F2846F3
:104F40002E604FF00936051F28462E604FF00836B8
:104F5000051F28462E604FF00736051F28462E6095
:104F60004FF00636051F28462E604FF00536051F08
:104F700028462E604FF00436051F28462E6070BD6F
:104F800070477047704700006821002064230020AC
:104F90007C010020D74C0008EFF3108072B67047F8
:104FA00080F3108870471D481D490170002080F370
:104FB00009881C48012101701B484FF08051016095
:104FC00062B6FEE718484FF08051016070471648FE
:104FD0004FF080510160704772B6EFF3098028B13D
:104FE000203880E8F00F11490968086000B51048C2
:104FF00080475DF804EB0F480F490A7802700B48B0
:105000000E490A680260106890E8F00F203080F3C3
:1050100009884EF0040E62B6704700BF20ED00E034
:105020000000FFFF5601002004ED00E05C010020BD
:10503000814F00084B0100204C010020640100203A
:10504000AD48806940F01800AB498861AB48006802
:1050500020F00F00AA49C1F8000C0846D0F8000C57
:1050600040F00300C1F8000C0846D0F8000C20F016
:10507000F000C1F8000C0846D0F8000C40F03000F9
:10508000C1F8000C9F48006820F470209D4908601A
:105090000846006840F4403008600846006820F484
:1050A000700008600846006840F4401008607047CF
:1050B00008210122944B1A604FF00002934BC3F871
:1050C000802115E010F0800F03D00122904B1A6070
:1050D00002E000228E4B1A6001228E4B1A604FF0C4
:1050E00000028A4BC3F880214FEA40624FEA126007
:1050F0000A00A1F10103D9B2E4D1704708210022CE
:10510000814B1A60814BC3F8802115E010F0800FAD
:1051100003D001227E4B1A6002E000227C4B1A6011
:1051200001227C4B1A604FF00002784BC3F88021BB
:105130004FEA40624FEA12600A00A1F10103D9B2BE
:10514000E4D1704730B504460D4605F1B001C8B250
:10515000FFF7D4FF210941F01000FFF7CFFF04F063
:105160000F00FFF7CBFF30BD70B50646002415E0F9
:1051700004F1B001C8B2FFF7C1FF0120FFF7BEFF85
:105180001020FFF7BBFF002504E03046FFF790FF3B
:10519000681CC5B2802DF8DB601CC4B2082CE7DBAC
:1051A00070BD30B5002415E004F1B001C8B2FFF7BE
:1051B000A5FF0120FFF7A2FF1020FFF79FFF0025AA
:1051C00004E00020FFF774FF681CC5B2802DF8DBF7
:1051D000601CC4B2082CE7DB30BD10B5FFF730FF10
:1051E00001204C4908604FF000004B49C1F8900184
:1051F0004FF00A00FBF731FD0120484908604FF0ED
:10520000AE00FFF77BFF0020FFF778FF1020FFF7CD
:1052100075FF4020FFF772FF8120FFF76FFFCF205F
:10522000FFF76CFFA120FFF769FFC820FFF766FFBB
:10523000A620FFF763FFA820FFF760FF3F20FFF7DE
:105240005DFFD320FFF75AFF0020FFF757FFD5205F
:10525000FFF754FF8020FFF751FFD920FFF74EFFE3
:10526000F120FFF74BFFDA20FFF748FF1220FFF78E
:1052700045FFDB20FFF742FF4020FFF73FFF2020E4
:10528000FFF73CFF0220FFF739FF8D20FFF736FFC5
:105290001420FFF733FFA420FFF730FFA620FFF70D
:1052A0002DFFAF20FFF72AFF0020FFF75DFF002151
:1052B0000846FFF747FF10BD70B5064600240025DD
:1052C00000BF15E004F1B001C8B2FFF717FF0020DE
:1052D000FFF714FF1020FFF711FF002505E006EB94
:1052E000C501085DFFF7E4FE6D1C802DF7DB641C33
:1052F000082CE7DB70BD000000100240000C0140EC
:10530000000001400010014094012242008021422F
:105310008481214280812142000022429001224268
:10532000FF48006810F4005F01D0012070470020A2
:10533000FCE710B5FB4B1B6843F47043FA4CC4F810
:1053400004342346D3F844344FF00003C4F8443403
:105350002346D3F844344FF00003C4F84434F34BED
:105360001B68C4F844342346D3F8443443F4005350
:10537000C4F844342346D3F8443443F40063C4F8F7
:1053800044342346D3F8443443F40073C4F844341B
:105390002346D3F8443443F08003C4F84434E34B49
:1053A0001B68C4F84434E14B1B68C4F84434DF4B39
:1053B0001B6802F0010443EA0413DC4C23604FEA4B
:1053C0009103D94CC4F84834D94BC4F84C34234623
:1053D000C3F85004D3F8443443F00103D34C2360A2
:1053E00010BD10B5D24B803B9960DB686FF30A03A8
:1053F000CF4C803CE3602346DB6800F03F0423434E
:10540000CB4C803CE3602346DB6802F0030443EAB4
:105410008413C74C803CE3602346DB68E36023468B
:10542000DB68E3602346DB6843F48063E36010BD20
:1054300030B5BF4C803C606221F07E44BC4D803D65
:10544000AC622C46E46A24F0F704EC622C46E46A71
:10545000150744EA1564B64D803DEC622C46E46ABB
:10546000EC622C46E46A03F0010544EA4504B04DC1
:10547000803DEC622C46E46A44F00104EC6230BDED
:10548000AB498039496821F0FF01A94A803A51604F
:1054900011464968014351607047A648806940F051
:1054A0002000A44988610846806940F010008861A6
:1054B0000846406940F4806048610846406940F011
:1054C000020048619C4840686FF313009A494860A5
:1054D00008464068994908439749486098480068D9
:1054E00020F47060C1F800040846D0F8000440F4CD
:1054F0003060C1F800047047014600BF8C48803816
:10550000406B10F0450FF9D040F2FF50884A803AC6
:1055100090631046406908221040C0B270472DE9E0
:10552000FC4107460E460025002400200090019013
:10553000012208211020FFF754FF1020FFF7DCFFA5
:10554000054615B12846BDE8FC817E480068010487
:1055500001223720FFF745FF3720FFF7CDFF054633
:105560000DB12846EFE7012303220821101FFFF7A2
:105570005FFF002400E0641C142CFCD300240122F3
:1055800000213320FFF72DFF3320FFF7B5FF05463D
:105590000DB12846D7E70EE065488038406B10F41F
:1055A000001F08D0624800684DF8240004F101048F
:1055B000022C00D106E05E488038406B40F22A6140
:1055C0000842E9D000BF5A488038406B10F0080FFD
:1055D00006D0082056498039886304252846B2E75A
:1055E00053488038406B10F0020F06D0022050491B
:1055F0008039886302252846A5E74D488038406BEE
:1056000010F0200F06D020204949803988630625F4
:10561000284698E746488038406B10F4007F07D052
:105620004FF40070424980398863072528468AE78D
:1056300040F2FF503E498039886300980006009987
:1056400001F47F4140EA0120009901F47F0140EA22
:105650001120009940EA11607060019800060199DC
:1056600001F47F4140EA0120019901F47F0140EA01
:105670001120019940EA11603060284663E77CB54B
:105680000546002400200090019029488038406998
:1056900010F0007F02D00E2420467CBD69462948C8
:1056A000006880B2FFF73BFF04460CB12046F4E7E8
:1056B000012D22D1019810F4802F1BD021480068C1
:1056C000010401223720FFF78CFE3720FFF714FF7B
:1056D00004460CB12046E0E7012202210620FFF734
:1056E00080FE0620FFF708FF04460CB12046D4E7F1
:1056F0002046D2E725242046CFE7019810F4803FCA
:1057000030D010480068010401223720FFF769FEFD
:105710003720FFF7F1FE0446B4B12046BDE7000094
:10572000000402400404024000000240440402401D
:10573000808001400010024000100140BBBB0B0004
:105740000014014084010020012200210620FFF7FF
:1057500048FE0620FFF7D0FE04460CB120469CE729
:1057600020469AE72524204697E770B50446002591
:10577000FF480068032802D12725284670BDFC4851
:10578000006838B1FA480068012803D0F84800687A
:10579000022839D1B4F5805F02D127252846EDE7EC
:1057A000B4F5006F19D10120FFF769FF05465DBB15
:1057B000F048406841F6FF018843EE4948600846DA
:1057C000406840F4006048600846406840F00200CD
:1057D000486008464068486016E00020FFF74FFF29
:1057E00005468DB9E348406841F6FF018843E14929
:1057F00048600846406848600846406840F002003B
:1058000048600846406848602846B7E770B50446D7
:105810000025012221460720FFF7E3FD0720FFF7BF
:105820006BFE0546284670BD2DE9F05F04464FF03B
:10583000000A0025CE48006884F85600CE4800686B
:10584000A4F85400CD480068050EA8092070C5F3DF
:105850008300607005F00300A070C8480068C0F3C2
:105860000745E570C5480068C0F307252571C348A2
:105870000068C5B26571C1484068050E2801E08026
:10588000BE484068C0F30745E08840EA1510E08054
:1058900005F00F002072B9484068C0F30725E809F9
:1058A0006072C5F38010A072C5F34010E072C5F3BA
:1058B0000010207300206073AD48006838B1AC4818
:1058C0000068012803D0AA48006803285AD1A80715
:1058D000000D2061A9484068C5B2206940EA8500F2
:1058E0002061A6488068050E206940EA9510206175
:1058F000C5F3C200207505F0070060759F488068F9
:10590000C0F307456809A075C5F38200E075A807D4
:10591000400F207699488068C0F30725207E40EA32
:10592000D51020762069401C0021C4E91201207E98
:10593000D4E91212801C012303FA00F0C317A1FB63
:1059400000CB02FB00B001FB0300C4E912C0217AC6
:105950000120884020654FF0000CD4E91231206D01
:10596000A3FB002B01FB00B003FB0C00C4E91220D9
:105970001422D4E912673046394604F04FFCC4E9DA
:10598000120137E07A480068022833D17B4840682A
:10599000C5B2A806800A206178488068050E206993
:1059A00040EA0520206175488068C0F307452069FA
:1059B0002843206171488068C0F307252069401C96
:1059C0004FF40071A0FB01014FF480620023A0FBA3
:1059D00002CB01FB02B100FB0310C4E912C050105E
:1059E00020651422D4E912894046494604F016FC89
:1059F000C4E91201C5F3801004F8190FA806400E7F
:105A000060705E488068C5B2607840EAD51060700A
:105A100005F07F00A0705948C068050EE809E070E5
:105A2000C5F341102071C5F38200607105F00300D9
:105A3000A0715248C068C0F30745A07940EA9510AC
:105A4000A071C5F34010E0710020207205F0010044
:105A500060724A48C068C0F30725E809A072C5F320
:105A60008010E072C5F340102073C5F3001060731E
:105A7000C5F38100A07305F00300E0733F48C068E0
:105A8000C5B268082074012060743D480068050EA6
:105A9000E574A4F119043A480068C0F307454FEAD9
:105AA0000520E08536480068C0F30725E08D40EA10
:105AB0000500E08532480068C5B24FEA0561216300
:105AC0002F4840684FEA1065206B40EA054121638A
:105AD0002B484068C0F30745206B40EA052121634D
